:100000000C948A000C94DF070C9480050C94DF0795
:100010000C94DF070C94DF070C94DF070C94DF07C8
:100020000C9405030C94DF070C94DF070C94DF0796
:100030000C94DF070C94DF070C94DF070C94DF07A8
:100040000C94DF070C94DF070C94BB010C94DF07C2
:100050000C94DF070C94DF070C94DF070C94DF0788
:100060000C9465030C94DF070C9420050C94500548
:100070000C94DF070C94DF070C94A5040C94DF07A5
:100080000C94DF070C94DF070C94DF070C94BE037D
:100090000C94DF070C94DF070C94DF070C94DF0748
:1000A0000C94DF070C94DF070C94DF070C947E029E
:1000B000250728072A0728072A0728072A072A07C3
:1000C0002A0728072A0728072A072A072A072807AE
:1000D0002A0728072A072A072A0725072507DE06F1
:1000E000DE06E306E706E306E706E306E706E306C1
:1000F000E706E306E706E306E706E306E706E306A8
:10010000E706E306E706E306E706DE06DE0640004E
:10011000404E8000809101108F7C8060806898ED57
:1001200094BF8093011011241FBECFEFCDBFDFE736
:10013000DEBFEEE0F1E041E019C0B791A791379141
:100140002791079107FD0EC097918791EF01F92F35
:10015000E82F0BBF07900D92A217B307D9F7FE0146
:100160001BBE04C01D92A217B307E1F7E331F407E9
:0E01700021F70E9491070C949C07F894FFCF92
:10017E00C307A707B10759061004DC07D1077D0690
:02018E008507E3
:10019000CF93DF9380E094E0FC011482C0E4D4E0CC
:1001A0001C82A0E6B4E014961C92149740EA54E036
:1001B000FA0114822FEEFC01208321E028831C9297
:1001C00020E1FA012083FC01108A118A128A138A25
:1001D00023E0248B158A168A178A188A82E0898B75
:1001E0001A8A1B8A1C8A1D8A1E8A1F8A50961C9294
:1001F000509751961C92519752961C925297539633
:100200001C92539754961C92549755961C9255974E
:1002100056961C92569757961C92FA01108A118A8C
:10022000128A138A148A858B168A178AE0EEF5E003
:10023000118611821082148216821782108685839D
:100240001282128683EE97E080934A4090934B404F
:1002500084EE97E0809348409093494085EE97E084
:10026000809346409093474086EE97E080934440C9
:100270009093454087EE97E08093424090934340AF
:1002800088EE97E0809340409093414089EE97E05C
:1002900080933E4090933F408AEE97E080933C40AD
:1002A00090933D408BEE97E080933A4090933B4093
:1002B0008CEE97E080933840909339408DEE97E034
:1002C00080933640909337408EEE97E08093344091
:1002D000909335408FEE97E0809332409093334077
:1002E00080EF97E0809330409093314081EF97E02A
:1002F00080932E4090932F4082EF97E080932C4084
:1003000090932D4083EF97E080932A4090932B4069
:1003100084EF97E0809328409093294085EF97E001
:10032000809326409093274086EF97E08093244067
:100330009093254087EF97E080932240909323404D
:1003400088EF97E0809320409093214089EF97E0D9
:1003500080931E4090931F408AEF97E080931C404B
:1003600090931D408BEF97E080931A4090931B4031
:06037000DF91CF9108951A
:100376001F920F920FB60F9211240BB60F922F9366
:100386003F934F935F936F937F938F939F93AF9317
:10039600BF93EF93FF9380910B0983FD04C0809177
:1003A6000B0982FF1EC080910B0983FF0AC082E001
:1003B60080934D40E0911240F091134085E00995FD
:1003C60010C080910B0982FF0AC081E080934D40E6
:1003D600E0911240F091134085E0099502C0109219
:1003E6004D4080910B09882324F080910B0986FFEC
:1003F6006FC080910B0986FF12C080910B0980FDAA
:100406000EC010924C40E0911240F091134084E0EF
:100416000995E0E0F9E08385806C838759C0809177
:100426000B0986FF20C080910B0980FF1CC08091BC
:100436000D09869590E0809314409093154081E0D5
:1004460080934C4010924D40E0911240F091134041
:100456000995882321F083E080930A0939C086E054
:1004660080930A0935C080910B0988238CF5809109
:100476000B0981FF1CC080914C40811108C08091FE
:100486000B0984FF04C083E080930A091FC0E09132
:100496001240F091134083E00995811104C086E073
:1004A60080930A0913C083E080930A090FC0E09184
:1004B6001240F091134082E00995882321F083E0F1
:1004C60080930A0903C086E080930A0910924C4083
:1004D600FF91EF91BF91AF919F918F917F916F9116
:1004E6005F914F913F912F910F900BBE0F900FBED2
:0604F6000F901F90189505
:1004FC001F920F920FB60F9211240BB60F922F93DF
:10050C003F934F935F936F937F938F939F93AF938F
:10051C00BF93CF93DF93EF93FF93809125098C7159
:10052C0009F447C08091250982FD04C080912509FA
:10053C0083FF0AC0E0E0F0E486E0858783E08487EF
:10054C008CE0809325091DC080912709882359F0E0
:10055C008091250984FF07C0E0E0F0E485E0858701
:10056C0081E084870EC080912809882351F0809106
:10057C00250984FF06C0E0E0F0E485E0858782E091
:10058C008487C0E0D0E4ED85F0E0EE0FFF1FE25869
:10059C00FE470190F081E02D09958D878C8588238D
:1005AC00C9F0E0911640F0911740309799F00995F9
:1005BC0011C080912509807E69F0C0E0D0E4ED8502
:1005CC00F0E0EE0FFF1FE258FE470190F081E02DA6
:1005DC0009958D87FF91EF91DF91CF91BF91AF91ED
:1005EC009F918F917F916F915F914F913F912F913F
:0E05FC000F900BBE0F900FBE0F901F90189522
:10060A001F920F920FB60F9211240BB60F922F93CF
:10061A003F934F935F936F937F938F939F93AF9380
:10062A00BF93EF93FF931C9B05C0E0913040F0917C
:10063A0031400995189B05C0E0912A40F0912B4062
:10064A000995199B05C0E0912840F0912940099528
:10065A001A9B05C0E0912640F091274009951B9B03
:10066A0005C0E0912440F091254009951D9B05C0E5
:10067A00E0912240F091234009951E9B05C0E0912C
:10068A002040F091214009951F9B05C0E0911E4032
:10069A00F0911F4009958FEF83B9FF91EF91BF91B8
:1006AA00AF919F918F917F916F915F914F913F9100
:1006BA002F910F900BBE0F900FBE0F901F901895A1
:1006CA001F920F920FB60F9211240BB60F922F930F
:1006DA003F934F935F936F937F938F939F93AF93C0
:1006EA00BF93EF93FF93799B05C0E0914240F0914D
:1006FA00434009957A9B05C0E0914040F091414002
:10070A0009957B9B05C0E0913E40F0913F400995D9
:10071A007C9B05C0E0913C40F0913D4009957D9B52
:10072A0005C0E0913A40F0913B4009957E9B05C097
:10073A00E0913840F091394009957F9B05C0E091DE
:10074A003640F091374009958FEF8FB9FF91EF91BD
:10075A00BF91AF919F918F917F916F915F914F91CF
:10076A003F912F910F900BBE0F900FBE0F901F90CD
:02077A001895D0
:10077C001F920F920FB60F9211240BB60F922F935C
:10078C003F934F935F936F937F938F939F93AF930D
:10079C00BF93EF93FF93BB9B05C0E0914A40F09150
:1007AC004B400995BA9B05C0E0914840F0914940F7
:1007BC000995B89B05C0E0913440F09135400995FE
:1007CC00B99B05C0E0913240F09133400995BD9B37
:1007DC0005C0E0912C40F0912D400995BC9B05C0C3
:1007EC00E0911A40F0911B4009958FEF87BBFF9168
:1007FC00EF91BF91AF919F918F917F916F915F918D
:10080C004F913F912F910F900BBE0F900FBE0F90F9
:04081C001F9018957C
:10082000CF93DF938091094090910A40019731F472
:10083000E0E2F9E084818460848305C0E0E2F9E0CD
:1008400084818B7F8483E0E0F0E481859285019749
:1008500081879287892BB1F0DF01C781D085E0E2E3
:10086000F9E08085888317968D919C911897019661
:1008700017968D939C93189784818C7F82608483D4
:1008800084E018C0A0E0B0E41796CD91DC911897F1
:10089000E0E2F9E08085888317968D919C91189706
:1008A000019617968D939C93189784818460848316
:0A08B0000E947D06DF91CF910895AC
:1008BA0040E068ED80E690E00E94D70740E068EDEE
:1008CA0081E690E00E94D70740E868ED88E790E06B
:1008DA000E94D70744E168ED88E690E00E94D707B6
:1008EA0040E068ED89E690E00E94D70740E068EDB5
:1008FA0080E790E00E94D70741E068ED8CE790E03E
:10090A000E94D70740E068ED82E690E00E94D70790
:10091A0040E068ED83E690E00E94D70740E068ED8A
:10092A0084E690E00E94D70740E068ED80E890E016
:10093A000E94D707E0E6F0E0858181FFFDCF0895A8
:10094A001F920F920FB60F9211240BB60F922F938C
:10095A003F934F935F936F937F938F939F93AF933D
:10096A00BF93EF93FF935B9B05C0E0914640F091E4
:10097A00474009955A9B05C0E0914440F091454093
:10098A000995599B05C0E0912E40F0912F40099599
:10099A00589B05C0E0911C40F0911D4009958FEFCE
:1009AA008BB9FF91EF91BF91AF919F918F917F91F9
:1009BA006F915F914F913F912F910F900BBE0F90C6
:0809CA000FBE0F901F9018955D
:1009D2008F929F92AF92BF92CF92DF92EF92FF924D
:1009E2000F931F93CF93DF935C016B017A0149014F
:1009F2000E944D07811115C0C0E0D0E481E08883D8
:100A0200A982BA828B87CB82DC82ED82FE828F82C0
:100A1200988609871A871C860E94B1078D8781E014
:100A220001C080E0DF91CF911F910F91FF90EF9075
:0E0A3200DF90CF90BF90AF909F908F9008956F
:100A40001F920F920FB60F9211240BB60F922F9395
:100A50003F934F935F936F937F938F939F93AF9346
:100A6000BF93EF93FF9381E080930D06E0911040D8
:100A7000F0911140309709F00995FF91EF91BF91E6
:100A8000AF919F918F917F916F915F914F913F9126
:100A90002F910F900BBE0F900FBE0F901F901895C7
:100AA0001F920F920FB60F9211240BB60F922F9335
:100AB0003F934F935F936F937F938F939F93AF93E6
:100AC000BF93EF93FF9382E080930D06E0910E4079
:100AD000F0910F40309709F00995FF91EF91BF9188
:100AE000AF919F918F917F916F915F914F913F91C6
:100AF0002F910F900BBE0F900FBE0F901F90189567
:100B00001F920F920FB60F9211240BB60F922F93D4
:100B10003F934F935F936F937F938F939F93AF9385
:100B2000BF93EF93FF93E0911840F09119403097F5
:100B300009F0099581E08093AA00FF91EF91BF91A0
:100B4000AF919F918F917F916F915F914F913F9165
:100B50002F910F900BBE0F900FBE0F901F90189506
:100B6000CF92DF92EF92FF920F931F93CF93DF9379
:100B70006C017B018A010E944D07811115C0C0E004
:100B8000D0E481E08883C982DA821B86EB82FC8212
:100B90000D831E831F82188619861A861C860E9462
:100BA000B1078D8781E001C080E0DF91CF911F9177
:0C0BB0000F91FF90EF90DF90CF90089520
:100BBC000F931F93CF93DF9300D00F92CDB7DEB777
:100BCC008B8319821A8202E010E09E012F5F3F4F47
:100BDC0041E050E0BE016D5F7F4F84E690E00E94E3
:100BEC00E904882381F30E944D078111FCCF898190
:100BFC0090E0982F88272A81822B2396CDBFDEBFC9
:0A0C0C00DF91CF911F910F91089521
:100C1600E0E0F6E080818E7F808384858C7F848708
:100C260083E08587109210401092114010920E407A
:100C360010920F4082E081838DE0828384E4838377
:100C4600148290E4958381E080879187128683875A
:100C56008687148A158A128A138A848781E8808394
:020C66000895EF
:100C68000F931F93CF93DF9300D0CDB7DEB78A835E
:100C7800198201E010E09E012F5F3F4F41E050E0F4
:100C8800BE016E5F7F4F84E690E00E94E9048823EE
:100C980081F30E944D078111FCCF89810F900F903D
:0A0CA800DF91CF911F910F91089585
:100CB2008091054090910640892B99F0E0E0F0E4A4
:100CC20085819681019785839683A381B4818C91D6
:100CD200809328098381948101968383948383E09E
:100CE200089580910B40882321F010920B4081E0FF
:080CF20008950E947D0608959B
:100CFA00A0E2B9E014968C911497836014968C93B1
:100D0A001497E0E0F0E410828FEF90E08183928301
:100D1A001382148217821086158680EC15968C939E
:0C0D2A00159781E015968C9380E00895E9
:100D3600CF93DF9300D00F92CDB7DEB789837A8346
:100D46006B8343E050E0BE016F5F7F4F84E690E027
:100D56000E94B0058823A9F30E944D078111FCCF9C
:0C0D66002396CDBFDEBFDF91CF91089532
:100D7200CF93DF9300D0CDB7DEB789836A8342E099
:100D820050E0BE016F5F7F4F84E690E00E94B005A5
:100D92008823A9F30E944D078111FCCF0F900F9079
:060DA200DF91CF910895DE
:100DA800482F50E04831510570F4FA01E159FF4FDE
:100DB8000C94BA070E943406282F30E005C00E9420
:0E0DC800DE059C0101C00895822F932F08952F
:100DD600E0E2F9E083818E7F83831082128284E0D1
:100DE6008683178210861582148281EC838381E0C4
:0C0DF6008583109216401092174008955B
:100E02000E945D040E94C8000E940B060E942B07EC
:100E12000E94EB060E943C070E945C070E94CA07E0
:0A0E22000E946A070E9478070895F5
:100E2C00962F272F482F50E0FA013197E731F10523
:100E3C0058F4722F692FE85AFF4F0C94BA070E948E
:0A0E4C00B90608950E949B06089560
:100E5600E0E0F9E01082128281E08487168681EE56
:100E660081871286158613861092124010921340BF
:020E76000895DD
:100E780045E168ED80EA90E00E94D707E0EAF0E0FB
:100E8800118281E081871286138683E0808780E063
:020E98000895BB
:100E9A0080910040811108C090912509937081E0EA
:0E0EAA00913019F480E001C081E0817008955C
:100EB80041E068ED80E590E00E94D70740E068EDEA
:0C0EC80081E590E00E94D70780E00895CB
:100ED40049E968ED80E091E00E94D70740E868EDB9
:0C0EE40081E091E00E94D70780E00895B3
:100EF00040E068ED80E191E00E94D707E0E1F1E099
:0A0F000012821382789480E00895B5
:100F0A00E0E2F9E083818E7F83838381816083833A
:080F1A001092004080E00895F0
:100F22000E94010788E00E94D40660E070E081E040
:060F32000E941607F7CF34
:100F3800EC010E94FD070E94FC07CE010E94FE07FB
:060F4800CE010E94E1074A
:100F4E008091014090910240880F81608093270923
:040F5E0084E008958E
:100F62008091014090910240880F8093270983E08D
:020F72000895E0
:100F7400EE0FFF1F0024001C0BBE0790F691E02D1E
:020F84000994CE
:0E0F86001092004081E08093250988E00895D4
:0E0F9400E0EBF0E014821082128280E00895FB
:0C0FA20080EC809325090E9485070895CB
:0A0FAE001BBEFC0164BF40830895E0
:060FB8000E947D06089571
:040FBE000C9400008F
:040FC2000E94BD00CC
:020FC60008958C
:020FC80008958A
:020FCA00089588
:020FCC00089586
:020FCE00089584
:020FD000089582
:020FD200089580
:020FD40008957E
:020FD60008957C
:020FD80008957A
:020FDA00089578
:020FDC00089576
:020FDE00089574
:020FE000089572
:020FE200089570
:020FE40008956E
:020FE60008956C
:020FE80008956A
:020FEA00089568
:020FEC00089566
:020FEE00089564
:020FF000089562
:020FF200089560
:020FF40008955E
:020FF60008955C
:020FF80008955A
:020FFA00089558
:020FFC00089556
:02000004008278
:090000000000000000C808000027
:00000001FF
