:100000000C94C8000C94ED110C94ED110C94ED11AE
:100010000C94ED110C94320B0C94110D0C94ED1109
:100020000C944A080C94ED110C94ED110C94ED1104
:100030000C94ED110C94ED110C94BD0B0C94ED117E
:100040000C94ED110C94ED110C94C2040C94ED1170
:100050000C94ED110C94ED110C94ED110C94ED1128
:100060000C9409090C94ED110C94B10C0C94E10C56
:100070000C94ED110C94ED110C94790B0C94ED1182
:100080000C94ED110C94ED110C94ED110C94B70936
:100090000C94ED110C94ED110C94ED110C94ED11E8
:1000A0000C94ED110C94ED110C94ED110C941B06B5
:1000B00072045B04A004890433041F040B04F703D7
:1000C0004704B708BD08C408CA08D108D808DF0823
:1000D000E608ED08F008F708FE08861089108B1076
:1000E00089108B1089108B108B108B1089108B103E
:1000F00089108B108B108B1089108B1089108B102E
:100100008B108B1086108610FF0FFF0F0410081045
:10011000041008100410081004100810041008102F
:10012000041008100410081004100810041008101F
:1001300004100810FF0FFF0F2A033B034C035F035B
:100140007203850398039803AB03C603D7034000EB
:10015000400E80400E401A00241E401A408D804000
:100160008D408F00242A408F40978040974099000F
:10017000242C4099409B80409B409C00242E409C16
:10018000409E80409E40A000242F40A040A18000BF
:10019000809101108F7C8060806898ED94BF80937F
:1001A000011011241FBECFEFCDBFDFE7DEBFEEE4AD
:1001B000F1E041E019C0B791A791379127910791DC
:1001C00007FD0EC097918791EF01F92FE82F0BBF24
:1001D00007900D92A217B307D9F7FE011BBE04C00A
:1001E0001D92A217B307E1F7EF38F40721F70E9439
:0A01F00006010C943B11F894FFCFB8
:1001FA006B11461150113F0E090AE71195112D0F87
:02020A000111E0
:10020C000E94A40F0E94CA118AEE93E00E94A711CB
:10021C0084ED91E10E94B11188ED91E10E94AC1145
:10022C0006E014E06894CC24C7F8C5E0D4E06894E8
:10023C00DD24D1F80F2EF3E0BF2EF02D6894FF24AF
:10024C00F2F80F2EF5E0EF2EF02D809198408330D0
:10025C00F1F128F4813051F08230E1F07BC0843030
:10026C0009F446C0853009F461C074C08091924095
:10027C00811108C040E06F2D0E9425110E94ED0EE7
:10028C008093934080919640813009F063C0E09256
:10029C00974060C080919240813051F018F08230CC
:1002AC0011F008C0C8820E94ED0E8093964002C0E7
:1002BC00F801C08280919640813019F0843021F091
:1002CC0049C0E092974046C0F092974043C080915D
:1002DC009240882311F0823021F40E94ED0E80931D
:1002EC009640809196408330A9F5D092974032C0C9
:1002FC0080919240813051F018F0823021F009C089
:10030C0081E00E940E030E94C01103C080E00E9495
:10031C000E0380919640823019F0833021F01AC080
:10032C00B092974017C0D092974014C080919240E1
:10033C00882319F0813029F007C081E00E94630EF8
:10034C0003C081E00E94630E80919640843011F4CA
:10035C00F09297400E94AA0880919540823041F11A
:10036C0028F4882349F0813079F051C08330A1F111
:10037C00843009F445C04BC080919140813009F024
:10038C0046C01092914043C080919140813051F011
:10039C0018F0823021F03BC081E00E9462100E9474
:1003AC00EA0A35C080E00E946210109291402FC082
:1003BC0080919140813051F018F0823021F027C0AB
:1003CC0081E00E9462100E94BF0F21C080E00E9459
:1003DC006210109291401BC080919140813051F07D
:1003EC0018F0823021F013C081E00E9462100E944C
:1003FC0062090DC080E00E9462101092914007C00B
:10040C0080919140811103C081E00E946210809123
:10041C009740809398408091944080939540809130
:0C042C009340811112CF0E94630E0FCF8D
:10043800CF93DF9380E094E0FC011482C0E4D4E021
:100448001C82A0E6B4E014961C92149740EA54E08B
:10045800FA0114822FEEFC01208323E028831C92EA
:1004680030E1FA013083FC01108A118A128A138A5A
:10047800248B158A168A178A188A82E0898B1A8A29
:100488001B8A1C8A1D8A1E8A1F8A50961C925097A6
:1004980051961C92519752961C92529753961C92C1
:1004A800539754961C92549755961C925597569666
:1004B8001C92569757961C92FA01108A118A128A32
:1004C800138A148A858B168A178AE0EEF5E011865E
:1004D8001182108214828683178210868583128285
:1004E800128681EF91E180936B4090936C4082EF8C
:1004F80091E18093694090936A4083EF91E1809302
:1005080067409093684084EF91E1809365409093B1
:10051800664085EF91E1809363409093644086EF55
:1005280091E1809361409093624087EF91E18093DD
:100538005F409093604088EF91E180935D40909395
:100548005E4089EF91E180935B4090935C408AEF35
:1005580091E18093594090935A408BEF91E18093B9
:100568005740909358408CEF91E180935540909379
:1005780056408DEF91E180935340909354408EEF15
:1005880091E180935140909352408FEF91E1809395
:100598004F409093504080E092E180934D4090937B
:1005A8004E4081E092E180934B4090934C4082E032
:1005B80092E18093494090934A4083E092E180938E
:1005C80047409093484084E092E18093454090935F
:1005D800464085E092E1809343409093444086E012
:1005E80092E1809341409093424087E092E180936A
:1005F8003F409093404088E092E180933D40909343
:100608003E4089E092E180933B4090933C40DF91EB
:04061800CF910895E1
:10061C001092A04010921A4010921B4010921C4055
:10062C0010921D4010921E4010921F4010922040BC
:10063C001092214090E08B30910508F0C4C0FC0171
:10064C00E456FF4F0C945911EEE0F0E488EE93E081
:10065C0080839183128213821482158216821782F0
:10066C0010861186128613860895EEE0F0E488EC6D
:10067C0090E0808391838283938314821582168207
:10068C00178210861186128613860895EEE0F0E428
:10069C0088EC90E080839183828393838483958319
:1006AC008683978328EE33E0208731878287938770
:1006BC000895EEE0F0E481E090E08083918388EE91
:1006CC0093E082839383148215821682178210869C
:1006DC001186128613860895EEE0F0E480E293E032
:1006EC008083918388EC90E08283938314821582BB
:1006FC001682178210861186128613860895EEE0F4
:10070C00F0E488EC90E0808391838283938380E291
:10071C0093E0848395838683978310861186128653
:10072C0013860895EEE0F0E482E390E080839183F9
:10073C0088EC90E082839383148215821682178250
:10074C0010861186128613860895EEE0F0E484EF8D
:10075C0091E08083918380E991E0828393838CE2A2
:10076C0091E08483958388EC90E08683978384E67C
:10077C0090E08087918782E390E082879387089549
:10078C00EEE0F0E482E390E08083918382839383B4
:10079C001482158216821782108611861286138691
:1007AC000895EEE0F0E482E390E08083918382830D
:1007BC00938384839583868397838087918784EF43
:0807CC0091E0828793870895F4
:1007D400E09108068E2F90E08930910508F0CCC096
:1007E400FC01E85AFF4F0C94591180911006909126
:1007F4001106982F9295907F80E064EE7CE00E9431
:10080400A1106093894070938A4086E00E94E411AD
:1008140008958091100690911106982F9295907FDB
:1008240080E064EE7CE00E94A110609387407093A6
:10083400884085E00E94E41108958091100690910B
:100844001106982F9295907F80E064EE7CE00E94E0
:10085400A110609385407093864084E00E94E41167
:1008640008958091100690911106982F9295907F8B
:1008740080E064EE7CE00E94A1106093834070935A
:10088400844088E00E94E4110895809110069091BC
:100894001106982F9295907F80E064EE7CE00E9490
:1008A400A110609381407093824081E00E94E41122
:1008B40008958091100690911106982F9295907F3B
:1008C40080E064EE7CE00E94A110CB010E9438100D
:1008D40080937F409093804080E00E94E4110895CB
:1008E4008091100690911106982F9295907F80E048
:1008F40064EE7CE00E94A110CB010E94381080932A
:100904007D4090937E4083E00E94E411089580919D
:10091400100690911106982F9295907F80E064EED6
:100924007CE00E94A110CB010E94381080937B4090
:1009340090937C4082E00E94E41108958091100617
:1009440090911106982F9295907F80E064EE7CE060
:100954000E94A110CB010E9438108093794090939B
:100964007A4087E00E94E41180919A40811107C087
:1009740081E080939A40089587E00E94E4110895ED
:100984001F920F920FB60F9211240BB60F922F9352
:100994003F934F935F936F937F938F939F93AF9303
:1009A400BF93EF93FF9380910B0983FD04C0809163
:1009B4000B0982FF1EC080910B0983FF0AC082E0ED
:1009C40080939040E0913540F091364085E0099560
:1009D40010C080910B0982FF0AC081E0809390408F
:1009E400E0913540F091364085E0099502C01092BF
:1009F400904080910B09882324F080910B0986FF95
:100A04006FC080910B0986FF12C080910B0980FD95
:100A14000EC010928F40E0913540F091364084E052
:100A24000995E0E0F9E08385806C838759C0809163
:100A34000B0986FF20C080910B0980FF1CC08091A8
:100A44000D09869590E0809337409093384081E07B
:100A540080938F4010929040E0913540F091364061
:100A64000995882321F083E080930A0939C086E040
:100A740080930A0935C080910B0988238CF58091F5
:100A84000B0981FF1CC080918F40811108C08091A7
:100A94000B0984FF04C083E080930A091FC0E0911E
:100AA4003540F091364083E00995811104C086E019
:100AB40080930A0913C083E080930A090FC0E09170
:100AC4003540F091364082E00995882321F083E097
:100AD40080930A0903C086E080930A0910928F402C
:100AE400FF91EF91BF91AF919F918F917F916F9102
:100AF4005F914F913F912F910F900BBE0F900FBEBE
:060B04000F901F901895F0
:100B0A00AF92BF92CF92DF92EF92FF920F931F9311
:100B1A00CF93DF9320911A4030911B4040911C40A3
:100B2A0050911D4060911E4070911F40809120405D
:100B3A0090912140A1E00E94191120931A4030930C
:100B4A001B4040931C4050931D4060931E4070937D
:100B5A001F408093204090932140E091A040F0E014
:100B6A00EE0FFF1FE25FFF4B80819181A0901A4038
:100B7A00B0901B40C0901C40D0901D40E0901E4099
:100B8A00F0901F400091204010912140282F392FCA
:100B9A0040E050E060E070E080E090E00E94621186
:100BAA0009F0F8F410921A4010921B4010921C405F
:100BBA0010921D4010921E4010921F401092204029
:100BCA00109221408091A0408F5F8093A040809135
:100BDA00A040873030F01092A04010920A0B109279
:100BEA000B0B8091A04080FD13C0E091A040F0E083
:100BFA00EE0FFF1FE25FFF4B80819181892B21F469
:100C0A0080E18093A50407C080E18093A60403C015
:100C1A0080E18093A504DF91CF911F910F91FF90FE
:0C0C2A00EF90DF90CF90BF90AF90089546
:100C36001F920F920FB60F9211240BB60F922F939D
:100C46003F934F935F936F937F938F939F93AF934E
:100C5600BF93CF93DF93EF93FF93809125098C7118
:100C660009F447C08091250982FD04C080912509B9
:100C760083FF0AC0E0E0F0E486E0858783E08487AE
:100C86008CE0809325091DC080912709882359F09F
:100C96008091250984FF07C0E0E0F0E485E08587C0
:100CA60081E084870EC080912809882351F08091C5
:100CB600250984FF06C0E0E0F0E485E0858782E050
:100CC6008487C0E0D0E4ED85F0E0EE0FFF1FE6502C
:100CD600FE470190F081E02D09958D878C8588234C
:100CE600C9F0E0913940F0913A40309799F0099572
:100CF60011C080912509807E69F0C0E0D0E4ED85C1
:100D0600F0E0EE0FFF1FE650FE470190F081E02D68
:100D160009958D87FF91EF91DF91CF91BF91AF91AB
:100D26009F918F917F916F915F914F913F912F91FD
:0E0D36000F900BBE0F900FBE0F901F901895E0
:100D440010C00E94871158F00E94801140F029F4CD
:100D54005F3F29F00C94A11151110C948F110C9444
:100D6400EA110E94AB0E68F39923B1F3552391F372
:100D7400951B550BBB27AA2762177307840738F006
:100D84009F5F5F4F220F331F441FAA1FA9F335D063
:100D94000E2E3AF0E0E832D091505040E695001C17
:100DA400CAF72BD0FE2F29D0660F771F881FBB1FD1
:100DB400261737074807AB07B0E809F0BB0B802DAF
:100DC400BF01FF2793585F4F3AF09E3F510578F0DB
:100DD4000C94A1110C948F115F3FE4F3983ED4F36B
:100DE400869577956795B795F7959F5FC9F7880FAF
:100DF400911D9695879597F90895E1E0660F771F01
:100E0400881FBB1F621773078407BA0720F0621B91
:0E0E1400730B840BBA0BEE1F88F7E095089560
:100E22000FC00E94801138F00E94871120F0952394
:100E320011F00C94A1110C94EA1111240C948F114D
:100E42000E94AB0E70F3959FC1F3950F50E0551FB2
:100E5200629FF001729FBB27F00DB11D639FAA270D
:100E6200F00DB11DAA1F649F6627B00DA11D661F5C
:100E7200829F2227B00DA11D621F739FB00DA11D7D
:100E8200621F839FA00D611D221F749F3327A00D37
:100E9200611D231F849F600D211D822F762F6A2FD3
:100EA20011249F5750409AF0F1F088234AF0EE0F38
:100EB200FF1FBB1F661F771F881F91505040A9F765
:100EC2009E3F510580F00C94A1110C948F115F3F4D
:100ED200E4F3983ED4F3869577956795B795F795A1
:100EE200E7959F5FC1F7FE2B880F911D9695879519
:040EF20097F90895CF
:100EF60080919F40813051F018F0823069F011C026
:100F060080919B40805480939B400BC080919B4076
:100F1600805880939B4005C080919B40805C809365
:100F26009B4080919E408330C1F028F4813049F087
:100F3600823069F029C08530E1F0A8F08630F9F0FA
:100F460023C080919B40885F80939B401DC0809109
:100F56009B40805F80939B4017C080919B40885E3A
:100F660080939B4011C080919B40805E80939B4004
:100F76000BC080919B40885D80939B4005C080910B
:100F86009B40885C80939B4080919D40882319F00C
:100F9600813039F00BC080919B408C5F80939B40E1
:100FA60005C080919B408E5F80939B4080919C40C2
:100FB600882329F080919B408F5F80939B40089502
:100FC60011C00E94801138F00E94871120F039F478
:100FD6009F3F19F426F40C94EA110EF4E095E7FB12
:100FE6000C94A111E92F0E94AB0E58F3BA176207B1
:100FF60073078407950720F079F4A6F50C948E11F3
:101006000EF4E0950B2EBA2FA02D0B01B90190011D
:101016000C01CA01A0011124FF27591B99F0593F61
:1010260050F4503E68F11A16F040A22F232F342FA9
:101036004427585FF3CF469537952795A795F040F7
:101046005395C9F77EF41F16BA0B620B730B840B0C
:10105600BAF09150A1F0FF0FBB1F661F771F881FC4
:10106600C2F70EC0BA0F621F731F841F48F487951C
:1010760077956795B795F7959E3F08F0B0CF93950E
:0E108600880F08F09927EE0F9795879508952B
:101094001F920F920FB60F9211240BB60F922F933B
:1010A4003F934F935F936F937F938F939F93AF93EC
:1010B400BF93EF93FF931C9B05C0E0914F40F091C9
:1010C40050400995189B05C0E0914B40F0914C406D
:1010D4000995199B05C0E0914940F0914A40099552
:1010E4001A9B05C0E0914740F091484009951B9B2D
:1010F40005C0E0914540F091464009951D9B05C00F
:10110400E0914340F091444009951E9B05C0E09155
:101114004140F091424009951F9B05C0E0913F403A
:10112400F091404009958FEF83B9FF91EF91BF9102
:10113400AF919F918F917F916F915F914F913F916B
:101144002F910F900BBE0F900FBE0F901F9018950C
:10115400E09193408E2F90E08C30910508F052C0BE
:10116400FC01EF59FF4F0C94591181E08093914099
:101174001092944047C081E08093914084E0809332
:10118400944040C081E080939140809394403AC061
:1011940081E08093914084E08093944033C081E067
:1011A4008093914084E0809394402CC081E08093AC
:1011B400914083E08093944025C081E080939140E6
:1011C40082E0809394401EC081E08093914084E04B
:1011D4008093944017C00E94221014C081E0809331
:1011E400914084E0809394400DC081E080939140CD
:1011F40083E08093944006C081E08093914084E032
:0E12040080939440809194400E940E030895C0
:101212001F920F920FB60F9211240BB60F922F93BB
:101222003F934F935F936F937F938F939F93AF936C
:10123200BF93EF93FF93799B05C0E0916140F091DA
:10124200624009957A9B05C0E0915F40F091604051
:1012520009957B9B05C0E0915D40F0915E40099548
:101262007C9B05C0E0915B40F0915C4009957D9BC1
:1012720005C0E0915940F0915A4009957E9B05C006
:10128200E0915740F091584009957F9B05C0E0914D
:101292005540F091564009958FEF8FB9FF91EF912C
:1012A200BF91AF919F918F917F916F915F914F917C
:1012B2003F912F910F900BBE0F900FBE0F901F907A
:0212C20018957D
:1012C40080917F409091804083349E4020F081E063
:1012D400809305040AC080917F40909180408533BB
:1012E4009D4018F481E08093060480917D409091A4
:1012F4007E4083349E4020F082E0809305040AC03F
:1013040080917D4090917E4085339D4018F482E029
:101314008093060480917B4090917C4083349E406E
:1013240020F084E0809305040AC080917B40909172
:101334007C4085339D4018F484E0809306048091BA
:10134400794090917A4083349E4020F088E08093E5
:10135400050408958091794090917A4085339D40A9
:0A13640018F488E080930604089551
:10136E001F920F920FB60F9211240BB60F922F935E
:10137E003F934F935F936F937F938F939F93AF930F
:10138E00BF93EF93FF93BB9B05C0E0916940F09133
:10139E006A400995BA9B05C0E0916740F09168409C
:1013AE000995B89B05C0E0915340F09154400995C2
:1013BE00B99B05C0E0915140F09152400995BD9BFB
:1013CE0005C0E0914D40F0914E400995BC9B05C083
:1013DE00E0913B40F0913C4009958FEF87BBFF9128
:1013EE00EF91BF91AF919F918F917F916F915F918F
:1013FE004F913F912F910F900BBE0F900FBE0F90FC
:04140E001F9018957E
:10141200CF93DF938091094090910A40019731F474
:10142200E0E2F9E084818460848305C0E0E2F9E0CF
:1014320084818B7F8483E0E0F0E48185928501974B
:1014420081879287892BB1F0DF01C781D085E0E2E5
:10145200F9E08085888317968D919C911897019663
:1014620017968D939C93189784818C7F82608483D6
:1014720084E018C0A0E0B0E41796CD91DC911897F3
:10148200E0E2F9E08085888317968D919C91189708
:10149200019617968D939C93189784818460848318
:0A14A2000E942D0FDF91CF910895F5
:1014AC00CF936091894070918A4080E090E00E94D7
:1014BC003D0C22E431E342E350E40E94CF111816B4
:1014CC009CF1609187407091884080E090E00E9490
:1014DC003D0C22E431E342E350E40E94CF11181694
:1014EC002CF1609185407091864080E090E00E94E4
:1014FC003D0C22E431E342E350E40E94CF11181674
:10150C00BCF0609183407091844080E090E00E9438
:10151C003D0CC1E022E431E342E350E40E94CF11E0
:10152C0018163CF0C0E005C0C1E003C0C1E001C02A
:08153C00C1E08C2FCF9108954E
:1015440040E068ED80E690E00E94B61140E068ED6E
:1015540081E690E00E94B61140E868ED88E790E0EB
:101564000E94B61144E168ED88E690E00E94B6114D
:1015740040E068ED89E690E00E94B61140E068ED35
:1015840080E790E00E94B61141E068ED8CE790E0BE
:101594000E94B61140E068ED82E690E00E94B61128
:1015A40040E068ED83E690E00E94B61140E068ED0B
:1015B40084E690E00E94B61140E068ED80E890E097
:1015C4000E94B611E0E6F0E0858181FFFDCF089529
:1015D4000E940D0F80913040811138C080912B40C2
:1015E4008823B9F088E00E94F50F0E944D10811500
:1015F40022E3920768F19C0129503943273C3105C5
:1016040018F40E94620905C0803D994318F580E0F2
:10161400089580912E4081111FC080912C40882311
:1016240029F081E08093964080E0089580912D40D8
:10163400882329F082E08093964080E00895809189
:101644002F4081110BC080912A40089589E00895AC
:1016540083E0089584E008958BE0089588E0089578
:101664001F920F920FB60F9211240BB60F922F9365
:101674003F934F935F936F937F938F939F93AF9316
:10168400BF93EF93FF938091420180FF0BC0809141
:10169400430180FF07C0E0917140F09172403097A0
:1016A40009F009958091420181FF0BC080914301AB
:1016B40081FF07C0E0916F40F0917040309709F0CE
:1016C400099583E080934301FF91EF91BF91AF911E
:1016D4009F918F917F916F915F914F913F912F9146
:0E16E4000F900BBE0F900FBE0F901F90189529
:1016F2001F920F920FB60F9211240BB60F922F93D7
:101702003F934F935F936F937F938F939F93AF9387
:10171200BF93EF93FF93599B05C0E0916B40F0910B
:101722006C4009955B9B05C0E0916540F091664075
:1017320009955A9B05C0E0916340F0916440099578
:10174200589B05C0E0913D40F0913E4009958FEFD6
:101752008BB9FF91EF91BF91AF919F918F917F9143
:101762006F915F914F913F912F910F900BBE0F9010
:081772000FBE0F901F901895A7
:10177A001F920F920FB60F9211240BB60F922F934E
:10178A003F934F935F936F937F938F939F93AF93FF
:10179A00BF93EF93FF938091060B80FF0AC0E091FD
:1017AA007340F0917440309709F0099581E0809375
:1017BA00060B8091060B81FF0AC0E0917540F091FB
:1017CA007640309709F0099582E08093060BFF91E5
:1017DA00EF91BF91AF919F918F917F916F915F919F
:1017EA004F913F912F910F900BBE0F900FBE0F900C
:0417FA001F9018958F
:1017FE00E0E0F2E086E0808B118A128A138A148A66
:10180E00158A81E084A710A211A212A213A214A21B
:10181E0015A216A217A215A617A610AA12AA12AEE4
:10182E0013AE16AE17AE109240021092410214AAD9
:10183E0015AA168A178A109242021092430210922B
:10184E0048021092490216AA10924B0210924D02B3
:10185E0010924C0210924A0210924F0210925102B4
:0C186E001092500210924E0280E008958B
:10187A00E89409C097FB3EF4909580957095619520
:10188A007F4F8F4F9F4F9923A9F0F92F96E9BB27D6
:10189A009395F695879577956795B795F111F8CF52
:1018AA00FAF4BB0F11F460FF1BC06F5F7F4F8F4FBD
:1018BA009F4F16C0882311F096E911C0772321F0B3
:1018CA009EE8872F762F05C0662371F096E8862F4B
:1018DA0070E060E02AF09A95660F771F881FDAF7A2
:0A18EA00880F9695879597F90895E9
:1018F4008F929F92AF92BF92CF92DF92EF92FF921C
:101904000F931F93CF93DF935C016B017A0149011D
:101914000E94D710811115C0C0E0D0E481E0888313
:10192400A982BA828B87CB82DC82ED82FE828F828F
:10193400988609871A871C860E9450118D8781E03A
:1019440001C080E0DF91CF911F910F91FF90EF9044
:0E195400DF90CF90BF90AF909F908F9008953E
:101962001F920F920FB60F9211240BB60F922F9364
:101972003F934F935F936F937F938F939F93AF9315
:10198200BF93EF93FF9381E080930D06E091334084
:10199200F0913440309709F00995FF91EF91BF9192
:1019A200AF919F918F917F916F915F914F913F91F5
:1019B2002F910F900BBE0F900FBE0F901F90189596
:1019C2001F920F920FB60F9211240BB60F922F9304
:1019D2003F934F935F936F937F938F939F93AF93B5
:1019E200BF93EF93FF9382E080930D06E091314025
:1019F200F0913240309709F00995FF91EF91BF9134
:101A0200AF919F918F917F916F915F914F913F9194
:101A12002F910F900BBE0F900FBE0F901F90189535
:101A22001F920F920FB60F9211240BB60F922F93A3
:101A32003F934F935F936F937F938F939F93AF9354
:101A4200BF93EF93FF93E0916D40F0916E4030971A
:101A520009F0099581E080935301FF91EF91BF91C5
:101A6200AF919F918F917F916F915F914F913F9134
:101A72002F910F900BBE0F900FBE0F901F901895D5
:101A82000E94B30E88F09F5798F0B92F9927B7514B
:101A9200B0F0E1F0660F771F881F991F1AF0BA9510
:101AA200C9F714C0B13091F00E948E11B1E00895CF
:101AB2000C948E11672F782F8827B85F39F0B93FC1
:101AC200CCF3869577956795B395D9F73EF49095C3
:0E1AD2008095709561957F4F8F4F9F4F0895BF
:101AE000CF92DF92EF92FF920F931F93CF93DF93EA
:101AF0006C017B018A010E94D710811115C0C0E0E2
:101B0000D0E481E08883C982DA821B86EB82FC8282
:101B10000D831E831F82188619861A861C860E94D2
:101B200050118D8781E001C080E0DF91CF911F913E
:0C1B30000F91FF90EF90DF90CF90089590
:101B3C000F931F93CF93DF9300D00F92CDB7DEB7E7
:101B4C008B8319821A8202E010E09E012F5F3F4FB7
:101B5C0041E050E0BE016D5F7F4F84E690E00E9453
:101B6C007A0C882381F30E94D7108111FCCF8981D4
:101B7C0090E0982F88272A81822B2396CDBFDEBF39
:0A1B8C00DF91CF911F910F91089592
:101B9600E0E0F6E080818E7F808384858C7F848779
:101BA60083E0858710923340109234401092314082
:101BB6001092324084E081838DE0828384E48383C3
:101BC600148290E4958381E08087918712868387CB
:101BD6001686148A158A128A138A848781E8808376
:021BE600089560
:101BE800209122403091234040912440509125403B
:101BF800609126407091274080912840909129401B
:101C0800A1E00E9419112093224030932340409371
:101C1800244050932540609326407093274080933A
:0C1C28002840909329400E94C5110895A7
:101C34000F931F93CF93DF9300D0CDB7DEB78A8382
:101C4400198201E010E09E012F5F3F4F41E050E018
:101C5400BE016E5F7F4F84E690E00E947A0C882379
:101C640081F30E94D7108111FCCF89810F900F90CE
:0A1C7400DF91CF911F910F910895A9
:101C7E008091054090910640892B99F0E0E0F0E4C8
:101C8E0085819681019785839683A381B4818C91FA
:101C9E00809328098381948101968383948383E0C2
:101CAE00089580910B40882321F010920B4081E023
:081CBE0008950E942D0F089506
:101CC600E0E5F0E09081997F91609083813041F06A
:101CD60018F0823071F016C08895000080E00895F3
:101CE600E0E5F0E08081826080838895000080E0F6
:101CF6000895E0E5F0E080818460808388950000A7
:081D060080E0089581E00895DA
:101D0E00990F0008550FAA0BE0E8FEEF16161706FE
:101D1E00E807F907C0F012161306E407F50798F066
:101D2E00621B730B840B950B39F40A2661F0232B7F
:101D3E00242B252B21F408950A2609F4A140A695FB
:081D4E008FEF811D811D089536
:101D560057FD9058440F551F59F05F3F71F0479556
:101D6600880F97FB991F61F09F3F79F0879508953B
:101D7600121613061406551FF2CF4695F1DF08C05A
:101D8600161617061806991FF1CF86957105610577
:041D96000894089510
:101D9A00E0E0FBE080818E7F8083118210861482CE
:101DAA0080EA9FE0848795871286138616828AE0E6
:101DBA0092E180937540909376408BE092E1809314
:101DCA0073409093744081E0858383E08083089513
:101DDA000E940D118531910528F481E08093964087
:101DEA0080E008950F9770F080919A408823E1F37C
:101DFA000E94560A882341F080919940823030F43B
:101E0A0086E0089583E0089580E0089587E00895C4
:101E1A0080E00E941A0EEAE2F0E486FB992790F924
:101E2A00968385FB992790F9958384FB992790F9E6
:101E3A00948383FB992790F9938382FB992790F9DE
:101E4A00928381FB992790F9918381708083089509
:101E5A00A0E2B9E014968C911497836014968C933F
:101E6A001497E0E0F0E410828FEF90E08183928390
:101E7A001382148217821086158680EC15968C932D
:0C1E8A00159781E015968C9380E0089578
:101E9600E0E4F1E081818111FDCFE0E4F1E08FEF34
:101EA6009FE7848795871086118680E290E0828777
:101EB6009387178281E082831582808381898111CD
:0C1EC600FDCFE0E4F1E0128A158A0895D7
:101ED200CF93DF9300D00F92CDB7DEB789837A8399
:101EE2006B8343E050E0BE016F5F7F4F84E690E07A
:101EF2000E94700D8823A9F30E94D7108111FCCF94
:0C1F02002396CDBFDEBFDF91CF91089584
:101F0E00E0E0FAE010A611A612A613A614A615A6D6
:101F1E0010A211A2118212821382148215821682CD
:101F2E00178216861186128613868FEF9FEF86A371
:0A1F3E0097A3178681E080830895C1
:101F48000E94A20A0E941C020E94CB0D0E94B5109A
:101F58000E940C100E94870F0E94CD0E0E94FF0B5A
:101F68000E9430110E944B0F0E94E6100E947211CD
:061F78000E94F410089520
:101F7E000E94ED0E882389F0863059F40E94560A8D
:101F8E0081110DC0809199408F5F8093994080E0C0
:101F9E000895873031F080E0089580E0089586E05E
:061FAE00089587E008958C
:101FB400CF93DF9300D0CDB7DEB789836A8342E045
:101FC40050E0BE016F5F7F4F84E690E00E94700D89
:101FD4008823A9F30E94D7108111FCCF0F900F9092
:061FE400DF91CF9108958A
:101FEA00482F50E04831510570F4FA01EC57FF4F81
:101FFA000C9459110E941A0E282F30E005C00E9435
:0E200A009E0D9C0101C00895822F932F089512
:10201800E0E2F9E083818E7F83831082128284E07C
:102028008683178210861582148281EC838381E06F
:0C20380085831092394010923A400895C0
:1020440080919840843049F4809177409091784011
:102054006FEF7FEF0E947710089580917740909101
:0C206400784060E070E00E947710089562
:10207000BC0180E090E00E943D0C2AE939E949E981
:102080005FE30E94DC1120E030E84BE355E40E945E
:0A2090007A110E94410DCB01089562
:10209A0061E070E08F3F9F4F10F460E070E080E0F5
:1020AA0090E00E943F0C2DEC3CEC4CEB51E40E947A
:0A20BA00E0110E94410DCB010895D2
:1020C400882349F0E6E0F4E080E4808380E88083BC
:1020D400109298400895E5E0F4E080E4808380E87D
:0A20E400808381E080939840089506
:1020EE00962F272F482F50E0FA013197E731F1054F
:1020FE0058F4722F692FE359FF4F0C9459110E9417
:0A210E00DA0F08950E94690F08958A
:1021180080918B4090918C40019680938B40909356
:102128008C4020918D4030918E408217930720F08B
:0A21380010928B4010928C40089525
:10214200AA1BBB1B51E107C0AA1FBB1FA617B707DB
:1021520010F0A61BB70B881F991F5A95A9F78095F7
:082162009095BC01CD01089528
:10216A00E0E0F9E01082128281E08487168681EE2F
:10217A008187128615861386109235401092364052
:02218A000895B6
:10218C00092E0394000C11F4882352F0BB0F40F479
:10219C00BF2B11F460FF04C06F5F7F4F8F4F9F4FB9
:0221AC00089594
:1021AE0080910040811108C090912509937081E0C3
:0E21BE00913019F480E001C081E08170089535
:1021CC0043E068ED80E590E00E94B61140E068EDD8
:0C21DC0081E590E00E94B61180E00895BB
:1021E80040E068ED80E191E00E94B611E0E1F1E0A5
:0A21F80012821382789480E00895AB
:10220200E0E2F9E083818E7F83838381816083832F
:082212001092004080E00895E5
:10221A0082E00E94F50F80937740909378408091F6
:08222A0077409091784008957F
:102232000024A7FD00942A0F301D401D501D601D73
:08224200701D801D901D089520
:10224A0080939F4060939E4040939D4010929C4093
:06225A000E947B070895BD
:102260000E949B1140E068ED81E090E10E94B61170
:0622700010920310089516
:10227600EC010E940D120E940C12CE010E940E1259
:06228600CE010E94EF11E1
:10228C008091014090910240880F816080932709D2
:04229C0084E008953D
:1022A0008091014090910240880F8093270983E03C
:0222B00008958F
:1022B200EE0FFF1F0024001C0BBE0790F691E02DCD
:0222C20009947D
:1022C4002A153B054C055D056E057F0580079107C2
:0222D40008956B
:0E22D6001092004081E08093250988E0089571
:0E22E400E0EBF0E014821082128280E0089598
:0E22F2005058BB27AA270E94E3070C94C61081
:0E23000000240A9416161706180609060895FA
:0E230E0000240A9412161306140605060895FC
:0E231C00E894BB2766277727CB0197F9089531
:0C232A0080EC809325090E9401110895A9
:0C233600E0E0F0E182818F78828308955E
:0C23420097F99F6780E870E060E0089564
:0A234E0080933340909334400895CB
:0A23580080934F4090935040089589
:0A23620080934D4090934E40089583
:0A236C001BBEFC0164BF408308950E
:0A2376008093734090937440089523
:0A2380000E94ED0E80939340089533
:0A238A000E9485050E948C10089542
:0A23940084EF9DE00E94BB11089544
:0A239E000E94870E08F48FEF0895E7
:0823A80081E080939340089549
:0823B00082E080939340089540
:0823B8000E94A2060C94C6105D
:0823C0000E9411070C94C610E5
:0623C80080930806089551
:0623CE000E942D0F08958E
:0623D4009FEF80EC08956C
:0423DA000C9400005F
:0423DE000E94FB005E
:0223E20008955C
:0223E40008955A
:0223E600089558
:0223E800089556
:0223EA00089554
:0223EC00089552
:0223EE00089550
:0223F00008954E
:0223F20008954C
:0223F40008954A
:0223F600089548
:0223F800089546
:0223FA00089544
:0223FC00089542
:0223FE00089540
:0224000008953D
:0224020008953B
:02240400089539
:02240600089537
:02240800089535
:02240A00089533
:02240C00089531
:02240E0008952F
:0224100008952D
:0224120008952B
:02241400089529
:02241600089527
:02241800089525
:02241A00089523
:02241C00089521
:0C241E00D00700000000000000000000DB
:02242A00D007D9
:01242C0001AE
:01242D0001AD
:01242E003C71
:01242F0006A6
:0124300003A8
:02000004008278
:090000000000000000C808000027
:00000001FF
